:020000040800F2
:10000000080D002021020008250200082702000830
:10001000290200082B0200082D0200080000000041
:100020000000000000000000000000002F02000897
:100030003102000800000000330200083502000809
:1000400037020008370200083702000837020008AC
:10005000370200083702000837020008370200089C
:10006000370200083702000837020008370200088C
:10007000370200083702000837020008370200087C
:10008000370200083702000837020008370200086C
:10009000370200083702000837020008370200085C
:1000A000370200083702000837020008370200084C
:1000B000370200083702000837020008370200083C
:1000C000370200083702000837020008370200082C
:1000D000370200083702000833080008591C0008DE
:1000E000FF23000837020008370200083702000823
:1000F00037020008370200083702000837020008FC
:1001000037020008370200083702000837020008EB
:1001100037020008370200083702000837020008DB
:1001200037020008370200083702000837020008CB
:1001300000F002F800F05FF80AA090E8000C82449A
:100140008344AAF10107DA4501D100F054F8AFF277
:10015000090EBAE80F0013F0010F18BFFB1A43F0A5
:1001600001031847449B0000649B00000A444FF0C1
:10017000000C10F8013B13F0070408BF10F8014B06
:100180001D1108BF10F8015B641E05D010F8016B4B
:10019000641E01F8016BF9D113F0080F1EBF10F8AF
:1001A000014BAD1C0C1B09D16D1E58BF01F801CBD2
:1001B000FAD505E014F8016B01F8016B6D1EF9D555
:1001C0009142D6D37047000000230024002500266A
:1001D000103A28BF78C1FBD8520728BF30C148BFAA
:1001E0000B607047642906F05580002070471FB5EA
:1001F0001FBD10B510BD06F01DFA1146FFF7F7FF41
:1002000000F02AF806F03BFA03B4FFF7F2FF03BC54
:1002100000F01AFA30BF72B662B680F308887047F1
:1002200008480047FEE7FEE7FEE7FEE7FEE7FEE7D9
:10023000FEE7FEE7FEE7FEE703480449044A054BF4
:10024000704700003101000808070020080D002059
:100250000809002008090020092000F09CF9482026
:1002600000F03CF8022000F081F9012000F07EF956
:1002700000F088FB00F0C0FB00F0B0FE4FF4165118
:10028000242000F061FA4FF4E131242001F069FCF0
:1002900000F05EFF01F0AAF9322000F057F805F0F7
:1002A000DCFA05F0EEFA4FF4FA7000F04FF801F0C6
:1002B00023FC0E2141F61F4001F070F80BE005F021
:1002C000B8FD05F071FD01200349087000BF024828
:1002D00000780028FBD1F2E7410000204FF0E02138
:1002E000096921F004014FF0E0221161C21700EB0F
:1002F0005272C2F3C702234B1A701946097801EBF8
:100300004102C2EBC1114FF6FF7202EAC1011E4A5F
:100310001180704701461B4A12784A434FF0E02390
:100320005A6100229A6101221A6100BF4FF0E02257
:10033000106900F001021AB100F48032002AF5D0F1
:1003400000224FF0E0231A619A61704701460E4A7D
:1003500012884A434FF0E0235A6100229A61012239
:100360001A6100BF4FF0E022106900F001021AB1DB
:1003700000F48032002AF5D000224FF0E0231A6109
:100380009A6170477C0000207E000020A34A0A404A
:100390000243A34B1A6070470146072323EA010278
:1003A00012029F4B1B1D18684FF6FF0318409D4B10
:1003B000184310439A4B1B1D186070472DE9F041FC
:1003C0000746884614461D462846FFF7E5FFC5F157
:1003D000040007FA00F60F20284100EA080006434F
:1003E00006F00F06E21704EBD2625211920002F1FE
:1003F000E022D2F800212146E31704EBD3635B111E
:10040000A4EB431C012303FA0CF31A432046E31721
:1004100004EBD3635B119B0003F1E023C3F80021DD
:100420008148005D40EA06107F490855BDE8F0812B
:1004300070B504460B46CE1701EB9676C6F38700DF
:10044000CE1701EB9676B610A1EB8606B606350EF2
:10045000764B9B6943F00103744EB3614FEAB633A8
:1004600053F820300F26AE40B343714E46F820308B
:10047000334653F8203004FA05F61E436C4B43F81C
:1004800020606C4B1B6801268E403343694E3360FD
:1004900002F0010343B1674B0C331B6801268E4009
:1004A0003343644E0C36336002F0020343B1614BB8
:1004B00008331E6801238B401E435E4B08331E60C9
:1004C00070BD00B5002059490861C860142048611A
:1004D00000208861C8610846006840F0010008609B
:1004E000084640685449084050494860084600683A
:1004F000524908404D4908600846006820F48020B1
:1005000008600846406820F4FE00486000208860CB
:1005100000214FF00060FFF739FF00BD10B54048E3
:100520000830006840F004003D49083108603F4849
:10053000C06940F080503D49C8614148406840F47E
:1005400080703F4948600846006840F00400086039
:100550000846006840F002000860FFF75BFE10BD2F
:100560003048001D2E49091D0860704701464906A4
:100570002E4A926942F001022C4B9A612C4A083AA9
:10058000526822F0E0622A4B083B5A601A465268D1
:100590000A435A60704730B504460025FFF791FFC3
:1005A0002248006840F480302049086000BF1F489E
:1005B0000068400C0028FAD04FF480601B49486066
:1005C000A01EC4B20846406840EA8440486008461D
:1005D000406840F4803048601A48006840F03200BB
:1005E000184908601148006840F080700F490860A1
:1005F00000BF0E480068400E0028FAD00B48406843
:1006000040F002000949486005E008484068C0F32E
:10061000870505F00305022DF7D130BD80FFFF1FD0
:1006200008ED00E00000FA0500E400E000100240E0
:1006300008000140000401400000FFF8FFFFF6FE43
:100640000070004000200240014600BF704700BF1C
:10065000BF4A128802F04002002AF9D0C2B2BC4B55
:100660001B1D1A807047BB49088000BFB949091F8C
:10067000098801F040010029F8D070472DE9F05FAA
:1006800005460E46300107F07BFB8146B24905FB6B
:1006900001F007F075FB8246494607F027FA074646
:1006A000384607F035FB84B2204607F069FB8346E5
:1006B000394607F0AAFC82464FF0834107F0A8FBB9
:1006C000814607F025FB80464FF6FF7000EA0414D0
:1006D00004EB080084B2A148806940F004009F49FF
:1006E00088610846806940F4804088619C480068C1
:1006F00020F47F609A4908600846006840F40B6067
:1007000008609648C06840F480409449C860084634
:10071000C06820F48040C8608E48001D0480001D21
:10072000008842F20C0108438A4908310880BDE87C
:10073000F09F8749091D088000BF8549098801F09D
:1007400040010029F9D070472DE9F05F05460E46BB
:10075000300107F015FB81467F4905FB01F007F0EA
:100760000FFB8246494607F0C1F90746384607F0B5
:10077000CFFA84B2204607F003FB8346394607F0E0
:1007800044FC82464FF0834107F042FB814607F06C
:10079000BFFA80464FF6FF7000EA041404EB08002D
:1007A00084B26E48806940F004006C498861084654
:1007B000C06940F40030C8616948001F006820F437
:1007C0007F406749091F08600846006840F40B40F5
:1007D000086063480830006840F480606049083170
:1007E00008605E48006940F480205C490861084662
:1007F000006920F480200861554808300480001DFD
:10080000008842F20C01084351490C310880084627
:10081000008840F4807008800846008840F020007E
:1008200008800223262200210846FFF7C7FDBDE805
:10083000F09F10B54648008800F02000002859D0ED
:100840004348001D0088474908600846006807F0D3
:100850007FFA45490860434800683138092848D282
:10086000DFE800F0050E1720292D31353E004FF04E
:100870007E513D48006807F0CBF83B49086038E0FE
:100880004FF07E513948006807F0C2F837490860D8
:100890002FE04FF07E513648006807F0B9F8344930
:1008A000086026E04FF07E513248006807F0B0F84B
:1008B000304908601DE000202B49086019E0002045
:1008C0002D49086015E001202B49086011E04FF028
:1008D0007E512A48006807F09BF82849086008E024
:1008E0004FF07E512548006807F09AFB23490860C5
:1008F00000BF00BF002010BD21480078F8B11948A2
:1009000000685A281BD000201D4A10701548006846
:10091000012806DB13480068082802DC114801782A
:100920000BE010480068412807DB0E4800684828A3
:1009300003DC0C4800784038C1B2084670470948CB
:1009400000685A2802D101200D4A10700020F5E7F6
:10095000004400400438014040420F0000100240B3
:1009600004080140880000208C0000209000002036
:100970009400002098000020800000209C000020AF
:10098000A80000201748806940F0080015498861D8
:100990001548006820F47000134908600846006894
:1009A00040F44010086010480830006840F40050DF
:1009B0000D4908310860704718B900210B4A1160D1
:1009C0000FE00B490968491C094A1160814208D1AE
:1009D00006490968C943074AC2F8B4110021044A0C
:1009E0001160704700100240040C0140B4812142A4
:1009F000AC000020008021425948806940F0080086
:100A00005749886157480068574908405549086068
:100A10000846006855490843524908605148083063
:100A2000006840F480504F4908310860084600686B
:100A300040F480400860704701464D48006828B97E
:100A40004C480088401C4B4A108002E00020494A74
:100A500010804748006828B94748007810B901203D
:100A6000454A107045480078B0B9434800780128DD
:100A700007D143480078401C414A107001203F4A8A
:100A800010703F480078022806D100203C4A1070C0
:100A90003C4A10800220704735480068012804D184
:100AA0000020354A1070354A10703548007801280A
:100AB0001CD134480088401C324A108010460088FF
:100AC00088420ADD2B480088884206DA00202C4A3A
:100AD00010702C4A10800120DDE7264800888842EB
:100AE00004DD0020264A1070264A10800020D2E73C
:100AF0002548007838B11E48006820B900202249F6
:100B00000870012070471A480068012801D11E4969
:100B100008700020F6E71D48008840B914480068B6
:100B200028B91B480088401C1949088002E00020B1
:100B30001749088016480088C82807DD0120134996
:100B40000880002012490880012070470F48008863
:100B5000012802D100200D4908800020F5E700009F
:100B600000100240040C0140FFFFF0F000000808F4
:100B700038812142B6000020B0000020B1000020E2
:100B8000B2000020B4000020B8000020BC0000200B
:100B9000BA00002010B50A461AB10123F74C2360B1
:100BA00002E00023F54C2360002116E00023F34C03
:100BB0003434236000F080031BB10123241D236023
:100BC00003E00023ED4C383423600123EB4C343434
:100BD00023604306180E4B1CD9B20829E6DB01231B
:100BE000E64C236010BD30B504460D4605F1B0015A
:100BF000C8B20021FFF7CEFF04F00F000021FFF77D
:100C0000C9FF102141EA14100021FFF7C3FF30BDD6
:100C1000F0B507460D4616460024E81DC1B2384619
:100C2000FFF7E1FF00BF08E0D54A02EB8611085D3F
:100C30000121FFF7AFFF601CC4B2102CF4DBA81D2C
:100C4000C1B23846FFF7CFFF00240AE07100491C0B
:100C5000CB4A02EB4111085D0121FFF79BFF601CAD
:100C6000C4B2102CF2DBF0BDF0B507460D461646B7
:100C70000024681DC1B23846FFF7B5FF00BF08E089
:100C8000BF4A02EB8611085D0121FFF783FF601C5C
:100C9000C4B2102CF4DB281DC1B23846FFF7A3FF05
:100CA00000240AE07100491CB54A02EB4111085DBD
:100CB0000121FFF76FFF601CC4B2102CF2DBF0BD06
:100CC00030B5B048007800284FD100241CE004F172
:100CD000B001C8B20021FFF75DFF00210846FFF711
:100CE00059FF00211020FFF755FF002508E0A64915
:100CF00001EBC501085D0121FFF74CFF681CC5B27F
:100D0000802DF4DB601CC4B2082CE0DB00241CE066
:100D100004F1B001C8B20021FFF73CFF00210846F2
:100D2000FFF738FF00211020FFF734FF002508E00F
:100D3000954901EBC501085D0121FFF72BFF681CF8
:100D4000C5B2802DF4DB601CC4B2082CE0DB8F48F8
:100D50000078401C8D49087008460078012804DDA1
:100D60001620087001208749087030BD00B50021A9
:100D70008D20FFF70FFF00211420FFF70BFF00214C
:100D8000AF20FFF707FF00BD00B500218D20FFF762
:100D900001FF00211020FFF7FDFE0021AE20FFF72C
:100DA000F9FE00BD30B500240CE0002506E000206F
:100DB000754901EBC5010855681CC5B2802DF6DBED
:100DC000601CC4B2082CF0DBFFF77AFF30BDF0B531
:100DD000144600267F2801DC3F2900DDF0BD0B46CC
:100DE000CF1701EB5777FF10C7F10707FAB2CF17FC
:100DF00001EB5777FF10A1EBC707FDB2C5F107075D
:100E00000123BB40DEB24CB15F4B03EBC0039B5CE4
:100E100033435D4F07EBC007BB5408E05A4B03EB6D
:100E2000C0039B5CB343584F07EBC007BB5400BFE4
:100E3000D4E72DE9F04F80460C4615461E46A346E2
:100E4000A5F12000C5B200273EE00C2E07D105EB2E
:100E500045004F4901EB800010F8079004E04D4831
:100E600000EB051010F807904FF0000A26E009F09B
:100E7000800028B121464046099AFFF7A8FF09E003
:100E8000099808B9012000E00020024621464046AA
:100E9000FFF79DFF4FEA49604FEA1069601CC4B23A
:100EA000A4EB0B00B04205D15C4608F1010000F054
:100EB000FF0806E00AF1010000F0FF0ABAF1080F8E
:100EC000D5DB00BF781CC7B2B742BEDBBDE8F08FF0
:100ED00010B50246012000E050430B00A1F10104CF
:100EE000E1B2F9D110BD2DE9FF4F81B0074691461F
:100EF0001E460E9D4FF0000A002439E0301B401EB4
:100F0000C1B20A20FFF7E4FFB9FBF0F00A21B0FB01
:100F1000F1F201FB1208BAF1000F16D1701EA042C7
:100F200013DDB8F1000F0ED10120AB4605EBDB71EC
:100F3000491001FB04710090C8B22B46202202998F
:100F4000FFF777FF12E04FF0010A0120AB4605EBF7
:100F5000DB71491001FB04710090C8B208F1300147
:100F6000CAB22B460299FFF764FF00BF601CC4B2EF
:100F7000B442C3DB05B0BDE8F08F0000800122421F
:100F80005E8C0008C000002078010020C100002015
:100F9000FA8100086E86000878B505460E461446AC
:100FA00018E07A2D03DD002506F11000C6B23A2EB6
:100FB00004DD002005460646FFF7F4FE0120009000
:100FC00022780C2331462846FFF733FF05F108004D
:100FD000C5B2641C20780028E3D178BD10B555480F
:100FE000806940F01000534988610846806940F0EC
:100FF0000100886150484068C0F313004E494860C2
:10100000084640684D4908434B4948600846006817
:1010100020F00F0008600846006840F002000860F9
:101020004748006840F48070454908604148006ABC
:1010300020F001003F4908624248008820F001008A
:10104000404908803E48006820F480703C490860B0
:1010500000203D4908606420FFF778F901203B49F2
:10106000C1F8BC010021AE20FFF794FD0021D5207E
:10107000FFF790FD00215020FFF78CFD0021A820F4
:10108000FFF788FD00213F20FFF784FD0021D320DA
:10109000FFF780FD00210846FFF77CFD002140207E
:1010A000FFF778FD00218D20FFF774FD002114204B
:1010B000FFF770FD00212020FFF76CFD00210220CA
:1010C000FFF768FD0021A120FFF764FD0021C0208B
:1010D000FFF760FD0021DA20FFF75CFD0021122000
:1010E000FFF758FD00218120FFF754FD0021EF207C
:1010F000FFF750FD0021D920FFF74CFD0021F12022
:10110000FFF748FD0021DB20FFF744FD00213020E0
:10111000FFF740FD0021A420FFF73CFD0021A620A1
:10112000FFF738FD0021AF20FFF734FDFFF73AFE4F
:1011300010BD0000001002400010014000002022FD
:1011400000700040306C0040BC012242000022428E
:101150006D48806940F004006B4988616B48006805
:1011600020F47000694908606748806940F40070A5
:10117000654988610846C06840F40070C860084648
:10118000C06820F40070C8600846406820F4404001
:1011900048600846406840F4004048605C48006889
:1011A0005C4908405A4908600846006808600846DB
:1011B000006820F480700860081D006820F00200BC
:1011C000091D08600846006820F460200860084691
:1011D000006840F4602008600846006840F4801011
:1011E00008600846006820F400600860484828301D
:1011F000006820F4700046492831086008460068FD
:101200000020086042480C30006820F4700040491B
:101210000C3108600846006840F4603008603C48C3
:10122000001D006840F001003949091D08600846AA
:10123000006840F00800086000BF3548001D0068E5
:1012400000F008000028F8D13148001D006840F087
:1012500004002F49091D086000BF2D48001D0068CB
:1012600000F004000028F8D17047014628483030CB
:10127000006820F01F00264A3032106010460068D7
:10128000084310602248001D006840F48000204A96
:10129000121D106000BF1E48001F006800F0020011
:1012A0000028F8D01A484830006880B270472DE90D
:1012B000F04F87B00520FFF7D8FF019006F01CF82B
:1012C00080464FF06632144B06F066F80022134B4E
:1012D000CDE9020106F060F80022114BCDE90401CE
:1012E00006F05AF8064600220E4B05F067FE04464B
:1012F00000220D4B05F062FE824605F0B7FF069016
:10130000069807B0BDE8F08F0010024000080140C9
:1013100004240140FFFFF00066660A4000002640FA
:10132000000059400000F03F0000B040A448806930
:1013300040F00800A24988610846806940F010002A
:101340008861A048006820F0FF009E4908600846B8
:10135000006840F0220008609A480C30006840F0B5
:10136000010098490C310860974800689749084087
:101370009549086008460068954908439249086005
:101380000846C068C8600846C06840F01000C860E1
:101390000846C06840F02000C860704700B50246AB
:1013A0000B46FFF7C3FF8648806940F4006084491C
:1013B00088610846C06940F00100C8610846C069FC
:1013C00040F00200C8610846C06940F00400C861EE
:1013D0000846806940F0040088610846806940F052
:1013E000080088617B48006820F00F007949086098
:1013F0000846006840F00B000860081F0068764946
:1014000008407449091F086008460068734908438A
:101410007049091F086072480280001F03807048ED
:101420001438008840F060006D491439088008467F
:10143000008840F00800088069480C38008840F0B7
:10144000010067490C39088065481830008840F46D
:10145000004063491831088061482C38008840F00A
:1014600001005F492C3908804FF461605C49083104
:101470000880800682850385008B40F060000907A4
:1014800008830846008B40F0080008830846008C5B
:1014900040F0010008840846008840F00100088000
:1014A0004FF4616088864F480280001F03804D48DA
:1014B0001438008840F060004A4914390880084612
:1014C000008840F00800088046480C38008840F04A
:1014D000010044490C39088042482C38008840F00B
:1014E000010040492C3908804FF461603D490831C2
:1014F000088000BD10B53C4B1B6813B900200021CB
:101500000022374B18800E23354C241F2380344B88
:101510002C3B1B88324C2C3C2380314B143B1B88CA
:1015200043F060032E4C143C23802D4B0C3B1B8856
:1015300043F001032A4C0C3C238023461B88238064
:101540004310274C0834238023079A850E23240751
:10155000238523461B88238023461B8B43F060038F
:10156000238323461B8C43F00103238423461B8CD7
:1015700023845310A3861B4B19800E23194C241F60
:101580002380184B2C3B1B88164C2C3C2380154B7E
:10159000143B1B8843F06003124C143C2380114B16
:1015A0000C3B1B8843F001030E4C0C3C238023466C
:1015B0001B8823804B100B4C0834238010BD000087
:1015C00000100240000C014000100140FF0F00FF1E
:1015D0000020220004080140F0FFFFF00B00000B88
:1015E0002C2C01402C04004080000020F74880692A
:1015F00040F00800F5498861F548006820F47F4014
:10160000F34908600846006840F44C500860704791
:1016100010B5EF48006820F47040ED4908600846B6
:10162000006840F4405008600120EA490860EA4838
:10163000D0F82C0108B9002010BD0120E549091F90
:101640000860FEF767FE0020E349C1F8AC01E148FD
:101650008038006808B10020EEE70120FEF75AFE4E
:101660000020DC49091F08600120E5E710B5D848D3
:10167000006820F47040D64908600846006840F4CD
:10168000405008600020D349091F0860D249C1F8C2
:10169000AC010120FEF73EFE0120CE49091F086083
:1016A000CD49C1F8AC01FEF735FE10BD10B50024E0
:1016B000C748006820F47040C549086008460068C3
:1016C00040F4004008600120C2490860FEF722FE95
:1016D0000120C149C1F8A801FEF71CFE0AE0601C08
:1016E000C4B2322C03DDFFF7C1FF002010BD012082
:1016F000FEF710FEB748803800680028EFD1B549E2
:10170000091F08600120F1E710B50020B149091F49
:101710000860AF48006820F47040AD490860084692
:10172000006840F4405008600020AB49C1F8AC01AB
:101730000120FEF7EFFD0120A649091F0860FEF712
:10174000E9FD0020A449C1F8A80110BD10B5002092
:10175000A049091F08609E48006820F470409C4919
:1017600008600846006840F44050086001209A492B
:10177000C1F8AC01FEF7CEFD01209649091F0860B3
:10178000FEF7C8FD00209449C1F8A80110BD70B54E
:1017900004468F48006820F470408D490860084670
:1017A000006840F44050086000208A49091F086022
:1017B000002516E0E009874908606006040E012054
:1017C000FEF7A8FD01208449C1F8A801FEF7A2FD9B
:1017D00000208049091F08600120FEF79BFD681C5E
:1017E000C5B2082DE6DB70BD2DE9F04105460E4679
:1017F00017469846FFF70CFF10B90120BDE8F081AD
:101800006906080EFFF7C3FFFFF750FF18B9FFF78F
:101810002DFF0120F2E73046FFF7B9FFFFF746FF43
:1018200000240BE018F80400FFF7B1FFFFF73EFFBC
:1018300018B9FFF71BFF0020E0E7641CBC42F1DB96
:10184000FFF714FF0020D9E770B505460024604873
:10185000006820F470405E4908600846006840F463
:1018600000400860002617E000205A49091F086060
:101870000220FEF74FFD01205749C1F8A80160067C
:10188000040E54488038006808B1601CC4B20220BD
:10189000FEF740FD701CC6B2082EE5DB15B1FFF760
:1018A00033FF01E0FFF752FF204670BD2DE9F04104
:1018B00006460F4614461D46FFF7AAFE10B9012042
:1018C000BDE8F0817106080EFFF761FFFFF7EEFE3D
:1018D00018B9FFF7CBFE0120F2E73846FFF757FFB4
:1018E000FFF7E4FEFFF794FE012101EB4601C8B2C9
:1018F000FFF74DFFFFF7DAFE0DE0012C04D10020C9
:10190000FFF7A2FF287003E00120FFF79DFF28707A
:101910006D1C601EC4B2002CEFD1FFF7A7FE0020A3
:10192000CEE770B505460E460024FFF771FE284647
:10193000FFF72DFF641CFFF7B9FE3046FFF727FFC6
:10194000641CFFF7B3FEFFF763FE691CC8B2FFF724
:101950001EFF641CFFF7AAFE0020FFF775FF044678
:10196000FFF784FE204670BD2DE9F041074688460A
:1019700015461E460024FFF74BFE3846FFF707FFCB
:10198000FFF794FE4046FFF702FFFFF78FFEFFF7D9
:101990003FFE791CC8B2FFF7FAFEFFF787FE00BFD3
:1019A0000DE0681EA04204D00120FFF74DFF305526
:1019B00003E00020FFF748FF3055601CC4B2AC4282
:1019C000EFDBFFF753FE2046BDE8F0810010024038
:1019D000040C0140AC812142008021422DE9F041FC
:1019E00080460D4616461F460024FFF711FE40466E
:1019F000FFF7CDFEFFF75AFE2846FFF7C8FEFFF7B8
:101A000055FE00BF06E0385DFFF7C1FEFFF74EFE52
:101A1000601CC4B2B442F6DBFFF728FE0120BDE82B
:101A2000F08170B505460E46144631462846FFF74C
:101A300078FF2070012070BD37B504460D4602AB1B
:101A4000012229462046FFF7C9FF3EBD2DE9F84394
:101A50000746884614461D46089E6A464146384653
:101A6000FFF7DFFF28B3601CFF2101FA00F0C4F18B
:101A700008012944491EFF220A41104300F0FF09D2
:101A8000C5F1080006FA00F0C6B2C4F1070006412D
:101A90009DF8000000EA090000909DF80000304326
:101AA00000909DF8002041463846FFF7C5FFBDE88D
:101AB000F8830020FBE7F8B506460F4614461D469E
:101AC0006A4639463046FFF7ACFF2DB10120A040F1
:101AD0009DF80010084305E00120A0409DF800108B
:101AE00021EA0000C0B200909DF80020394630463F
:101AF000FFF7A2FFF8BD000010B51248806940F062
:101B00000800104988611048006820F070400E49B4
:101B100008600846006840F0004008600A48083045
:101B2000006840F4004008490831086001220F2194
:101B30001046FEF77DFC0223282201210846FEF70D
:101B40003DFC10BD00100240040C014045490880D6
:101B500000BF4449091F098801F040010029F8D05D
:101B600070472DE9F05F05460E46300106F008F992
:101B700081463D4905FB01F006F002F982464946DF
:101B800005F0B4FF0746384606F0C2F884B2204696
:101B900006F0F6F88346394606F037FA82464FF0EB
:101BA000834106F035F9814606F0B2F880464FF6DB
:101BB000FF7000EA041404EB080084B22B4880692B
:101BC00040F00100294988610846806940F0100012
:101BD00088610846C06940F48020C8612448406894
:101BE00020F47F40224948600846406840F40B409A
:101BF00048600846C06840F48060C8601D4840687E
:101C000040F010001B4948601848006940F48020EB
:101C1000164908610846006920F4802008611148CF
:101C2000001D0480001D008842F20C0108430D498C
:101C3000083108800846008840F480700880084613
:101C4000008840F020000880022327220121002084
:101C5000FEF7B4FBBDE8F09F0248001F008800209B
:101C6000704700000448004040420F00001002404E
:101C700000100140000001402DE9F0478CB00446FF
:101C80008946924651464FF07E5006F0C1F806460E
:101C9000214605F0BDFE054606F01EF8FE49086027
:101CA00051464FF07E5006F0B3F8054605F084FE2D
:101CB000CDE90801484605F07FFE05460E460020A6
:101CC000F64905F067F8074600224FF0804305F01B
:101CD00075F92A463346CDE9000105F05DFBCDE9F3
:101CE00004014FF03F41204606F092F8054605F00A
:101CF00063FECDE90201DDE9042305F0A3F8CDE997
:101D00000601DDE9082305F09DF8CDE90A0105F09B
:101D1000ADFAE349086051464FF07E5006F078F87E
:101D2000054605F049FECDE90801484605F044FEA8
:101D3000CDE902010020D94905F02CF80546002222
:101D40004FF0804305F03AF9CDE90001DDE90223C7
:101D500005F022FB074688464FF03F41204606F03B
:101D600057F8054605F028FE3A464346CDE90401FA
:101D700005F038FDCDE90601DDE9082305F062F83C
:101D8000CDE90A0105F072FAC64908600CB0BDE859
:101D9000F0872DE9F74F82B08A4693464FF0804195
:101DA000029806F035F80546514606F039F9044622
:101DB000594606F035F9BC4908600020B74904F0DF
:101DC000E9FF04460D465946504606F029F90190B0
:101DD00005F0F2FD064622462B4605F0DDFA804668
:101DE00004F0FEFFB14908605146029805F010FE6C
:101DF0000446594605F00CFEAD49086005B0BDE843
:101E0000F08F0146002901DA484200E00846704799
:101E100010B504462046FFF7F4FFA649B1FBF0F3E6
:101E2000B3F5803F02D34FF6FF7200E09AB210463E
:101E300010BD2DE9F04781460C461546B9F1000F5B
:101E400003DD00209C49086002E001209A490860F7
:101E5000002C04DD00209849091D086003E00120E2
:101E60009549091D0860002D03DD00209349086095
:101E700002E00120914908604846FFF7C9FF064685
:101E80002046FFF7C5FF07462846FFF7C1FF8046FB
:101E9000424639463046FFF72DFBBDE8F08770B566
:101EA000054687480078012817D08649864800688B
:101EB00005F07AFF11D385498348006806F074F86D
:101EC0000BD380498248006805F06EFF05D37F4937
:101ED0007F48006806F068F80FD201240020764998
:101EE00008607C49C1F89401744908607249091F6F
:101EF000086001207249087004E001206E49091F42
:101F000008600024204670BD73490968424291422E
:101F100002DA4142704A11606F490968814201DD6D
:101F20006D4908606D4909684242914202DA4142B6
:101F30006A4A116069490968814201DD67490860A0
:101F4000674909684242914202DA4142644A11609B
:101F500063490968814201DD61490860704770B5D5
:101F600002460023012108E05E4C34F811504C1E5B
:101F70005C4E26F814504C1CE1B21929F4DB14B263
:101F8000584D2C86002105E0564C34F9114023446D
:101F90004C1CE1B21929F7DB192493FBF4F420B2AD
:101FA00070BD2DE9F14F50480078012804D14F4809
:101FB00000684F4908600DE04E480078012806D1BE
:101FC0004A48006880F000404949086002E000206B
:101FD000474908600098FFF7C2FF044605F0B8FEC5
:101FE000454908604548006805F0E6FC06464FF0A4
:101FF0006632434B05F0D0F9044604F0F1FE3F4948
:1020000008603D48006805F0D7FC80464FF0333249
:102010003C4B05F0C1F904460D463848006805F010
:10202000CBFC064622462B4604F00CFF824604F009
:10203000D7FE32490860084601683348006805F059
:10204000E7FC314908602A4801682F48006805F01C
:10205000DFFC2D4908602D492B48006805F0A4FFDE
:1020600002D22A482849086029492748006805F013
:102070009BFE02D22648244908601148007810B11E
:10208000002021490860234801681F48006805F0C6
:10209000BFFE0646204941E0200000200000084025
:1020A0002400002028000020080000200C00002050
:1020B0001000002040420F00900122428081214206
:1020C00002000020000070C24400002000007042A6
:1020D00048000020000022421400002018000020C8
:1020E0001C000020AA050020050000200801002097
:1020F0000401002006000020FC0000200001002058
:102100006666E63F3333D33F0C010020007C124863
:10211000007C12C87800002000409C4505F0E6FCD9
:102120000446FB480168FB48006805F071FE06465E
:10213000F94905F0DBFC0546214605F069FCF74945
:102140000860F748007808B100200860F54800688A
:10215000F5490860F1480068F4490860F449EF481F
:10216000006805F021FF02D2F148EC490860F1490E
:10217000EA48006805F018FE02D2EE48E749086018
:10218000E648006805F0A8FDBDE8F88F70B5024686
:102190000023012108E0E84C34F811504C1EE64EB3
:1021A00026F814504C1CE1B21929F4DB14B2E24DAC
:1021B0002C86002105E0E04C34F9114023444C1CEE
:1021C000E1B21929F7DB192493FBF4F420B270BDB6
:1021D0002DE9F14FD9480078012806D1D848006888
:1021E00080F00040D74908600BE0D748007801280C
:1021F00004D1D3480068D349086002E00020D149E7
:1022000008600098FFF7C2FF044605F0A1FDCF4922
:102210000860CF48006805F0CFFB06464FF06632F5
:10222000CC4B05F0B9F8044604F0DAFDC849086063
:10223000C648006805F0C0FB80464FF03332C64BFD
:1022400005F0AAF804460D46C148006805F0B4FB45
:10225000064622462B4604F0F5FD824604F0C0FDFA
:10226000BB49086008460168BC48006805F0D0FB1F
:10227000BA490860B3480168B848006805F0C8FB6F
:10228000B6490860B649B548006805F08DFE02D22F
:10229000B348B2490860B349B048006805F084FD0E
:1022A00002D2B048AD4908609D48007810B10020C6
:1022B000AA490860AC480168A848006805F0A8FD74
:1022C0000646AA4905F012FC044691480168A04858
:1022D000006805F09DFD06468F4905F007FC0546A0
:1022E000214605F095FBA24908608D48007808B1A9
:1022F00000200860994800689E4908609C48006872
:102300009D4908608A499A48006805F04DFE02D24E
:1023100087489749086087499548006805F044FD5B
:1023200002D28448924908609148006805F0D4FCC4
:10233000BDE8F88F2DE9F05F04460D4626468F482C
:102340000168284605F064FD8346734905F0CEFB1D
:10235000814631468A48006805F05AFD8246494662
:1023600005F056FB804605F0B7FC07463846BDE849
:10237000F09F2DE9F05F04460D4626467F48016830
:10238000284605F045FD8346634905F0AFFB8146CD
:1023900031467B48006805F03BFD8246494605F022
:1023A00037FB804605F098FC07463846BDE8F09FAD
:1023B00070B54B20FEF740FB0446FEF7ACFB05462C
:1023C000012C07D15648007808B9012000E0002010
:1023D00053490870022C07D16A48007808B90120D7
:1023E00000E0002067490870012D07D16648007899
:1023F00008B9012000E000206349087070BD2DE994
:10240000FF5F6248006800287ED14FF400406049B9
:1024100008606048007808B9012000E000205D49AC
:1024200008705D48007801280BD15C480078401C9A
:10243000C0B25A4908700A2803D1002008705649D2
:10244000087054480078012861D103F07BFAFFF747
:10245000AFFF5348006805F0AFFA0446514A524BAB
:1024600005F098F821D24E48006805F0A5FA044618
:102470004C4A4E4B04F054FF17D24D48006805F00B
:102480009BFA0446474A484B05F084F80DD2484869
:10249000006805F091FA0446424A444B04F040FFBC
:1024A00003D20020FEF788FA02E06420FEF784FAE7
:1024B000FEF7FDFE054605F04BFC04463D4801686D
:1024C000204605F0A5FA3B4908604FF07E513A4896
:1024D000006805F09DFA3849044608600E4905F089
:1024E000C7FB0ED10C493348006805F0FFFA0446DB
:1024F00005F0F2FB3149086000202E4908602E49A2
:102500000860002004B000E096E1BDE8F09F57E0CD
:1025100074000020000100200000C842F8000020E4
:10252000020000200C010020340000203C000020AC
:1025300000007A4400007AC47805002000000020E2
:10254000F0000020EC00002001000020E40000204A
:10255000E80000206666E63F3333D33FF4000020F6
:10256000007C1248007C12C87800002000409C4586
:10257000E000002030000020380000207000002023
:102580006C00002003000020040000203C81214258
:1025900014040140C400002041000020400000203D
:1025A000600000209A9999999999E9BF9999E93F12
:1025B0005C000020CC000020C80000202C0000207F
:1025C00003F0C0F99E4801689E48006805F028FDA8
:1025D0009D4908609D48006805F0EEF982469C4AD6
:1025E0009C4B04F0D9FE06460F469B48006805F058
:1025F000E3F9804632463B4604F024FC044604F0EE
:10260000EFFB95490860954801689548006805F01A
:1026100007FD914908608D48006805F0CDF98246B4
:102620008B4A8C4B04F0B8FE804689468A48006885
:1026300005F0C2F9064642464B4604F003FC044648
:1026400004F0CEFB844908608648006805F080FBF2
:1026500004468548006805F07BFB05468348006812
:1026600005F076FB064622462946FFF792FB804896
:10267000006805F0A1F906467E4A7F4B04F08CFE07
:1026800004460D467148006805F096F98046794A7F
:10269000794B04F081FE06460F467849B1F90200F5
:1026A00005F056FB814649466B480068FFF761FE1E
:1026B000804604F00AFE824632463B4604F0C2FBE6
:1026C00022462B46CDE9000105F08CF8CDE9020148
:1026D00004F0CCFD6A4908606A48006805F06CF9AE
:1026E0000446644A644B04F057FE82468B466648B3
:1026F000006805F061F906465E4A5F4B04F04CFE47
:1027000004460D465D49B1F9000005F021FB07467E
:1027100039464D480068FFF70DFE4642304604F04A
:10272000D4FD804622462B4604F08CFB52465B4685
:10273000CDE9000105F056F8CDE9020104F096FD5F
:10274000524908605248006805F0C6FA8046FFF713
:102750003FFD074605F0FCFA06464E480168304644
:1027600005F05EFC05464C4905F052F9044605F0BB
:10277000B3FA4A4908604A48006805F0ADFA804655
:10278000FFF70FFC074605F0E3FA064641480168EB
:10279000304605F045FC05463F4905F039F9044649
:1027A00005F09AFA3F490860354909683B4A1268C2
:1027B000881805F0CDFA3C49086034490968394A5F
:1027C0001268881805F0C4FA3849086000203849B2
:1027D0000860084602683548016833480068FFF71A
:1027E0004BFA3448006821490860334800681E49A4
:1027F0000860324800681B49086040F21450FFF737
:1028000083FB2F480068FFF74AFB38B91548026878
:102810001548016815480068FFF70BFB2948007848
:1028200050B108480068064908600D4800680B4927
:102830000860002023490870002004B0BDE8F09F24
:1028400064000020480000205C0000208C00002074
:102850009A9999999999A93F6000002068000020F1
:10286000440000201C00002018000020140000205C
:1028700090000020FCA9F1D24D62503F3C010020A5
:10288000D00000209800002094000020D8000020F4
:10289000080000209C0000200000A040D400002080
:1028A0000C000020DC00002050000020540000201C
:1028B00058000020200000202400002028000020D4
:1028C0002C0000200300002038B50446FB4890F897
:1028D0002400C0B114B10220009001E0002000905B
:1028E000F64A1268D17BF54A526810786B4601228D
:1028F000FEF77AFF10B14FF0FF3038BD9DF80010A1
:10290000EE48417423E0ED48807A10B94FF0FF3073
:10291000F3E724B1E948407C08B10020EDE714B1A9
:102920000120009001E000200090E44A1268D17B71
:10293000E24A526810786B460122FEF755FF10B14B
:102940004FF0FF30D9E79DF80010DC4841740020BB
:10295000D3E738B5002419E0D8480068C07AA0420F
:1029600004D0D6480068407DA04200D10CE0D34995
:10297000496808786B4601222146FEF797FF10B19F
:102980004FF0FF3038BD00BF601CC4B2CB48406878
:102990000079A042E0DC0020F4E770B504460D4663
:1029A000C6480068C07AA04204D0C4480068407D90
:1029B000A04202D14FF0FF3070BDC048406800799E
:1029C000A04202DC4FF0FF30F6E7BC4949680878C6
:1029D0002B4601222146FEF769FFEDE738B5044694
:1029E000B64890F82300A04201D1002038BD14B1B0
:1029F0003020009001E000200090B048807C20B1A1
:102A00009DF8000040F002000090AC4890F82200D1
:102A100020B19DF8000040F080000090A74A1268A5
:102A2000117DA64A526810786B460122FEF7DCFE43
:102A300010B14FF0FF30D9E7A04880F823400020C4
:102A4000D4E738B5044604F0700010B101200090BE
:102A500005E014B10020009001E040200090974A6A
:102A60001268917C954A526810786B460122FEF7F5
:102A7000BBFE20B1002191488172481E38BD9DF8EF
:102A8000000020F040018D4801730020009004F008
:102A9000400020B99DF8000040F00400009004F0D0
:102AA000200020B99DF8000040F00200009004F0E2
:102AB000100020B99DF8000040F00100009004F0E3
:102AC000080020B99DF8000040F0380000907B4AD3
:102AD0001268D17C794A526810786B460122FEF761
:102AE00083FE20B1002175488172481EC6E724B1DB
:102AF000082C02D00020FFF771FF7048847200217B
:102B000001753220FDF722FC0020B7E738B50446F6
:102B10006A48807CA04201D1002038BD002C46D0FC
:102B2000664A12681179654A526810786B4601222C
:102B3000FEF7BCFE10B14FF0FF30EEE79DF800004D
:102B400020F0200000905D4A126811795B4A5268BB
:102B500010786B460122FEF747FE10B14FF0FF30B0
:102B6000DBE70320FDF7F2FB02200090534890F8CA
:102B7000220020B19DF8000040F0800000904F48F6
:102B800090F8230020B19DF8000040F03000009044
:102B90004A4A1268117D494A526810786B460122F0
:102BA000FEF722FE002851D04FF0FF30B5E7434A30
:102BB00012681179414A526810786B460122FEF77B
:102BC00075FE10B14FF0FF30A7E73C48807A00F067
:102BD000010028B19DF8000040F02000009004E0C2
:102BE0009DF8000020F020000090344A126811790E
:102BF000324A526810786B460122FEF7F5FD10B19B
:102C00004FF0FF3089E70320FDF7A0FB2B4890F839
:102C1000220010B18020009001E0002000902748A1
:102C200090F8230020B19DF8000040F030000090A3
:102C3000224A1268117D214A526810786B4601229F
:102C4000FEF7D2FD10B14FF0FF3066E71B488474E9
:102C5000002062E708B51948807A10B94FF0FF30BC
:102C600008BD00200090154A1268D17B134A5268B3
:102C700010786B460122FEF7B7FD10B14FF0FF3020
:102C8000EEE70E4A126851790C4A526810786B468A
:102C90000122FEF7A9FD10B14FF0FF30E0E7074A2F
:102CA00012681179054A526810786B460122FEF7C6
:102CB0009BFD28B14FF0FF30D2E70000100100204B
:102CC000F74890F82400002850D00C200090F44AD7
:102CD00012681179F24A526810786B460122FEF7A9
:102CE00083FD10B14FF0FF30BAE7C0200090EC48F0
:102CF000807A00F0010020B19DF8000040F0200033
:102D00000090E74A12681179E54A526810786B46DC
:102D10000122FEF769FD10B14FF0FF30A0E7E04857
:102D2000407C10B10220009001E000200090DC4ABD
:102D30001268D17BDA4A526810786B460122FEF79E
:102D400053FD10B14FF0FF308AE700200090D44AC5
:102D500012685179D24A526810786B460122FEF708
:102D600043FD002852D04FF0FF3079E70420009057
:102D7000CB4A12681179CA4A526810786B46012210
:102D8000FEF732FD10B14FF0FF3069E7C448807C98
:102D900020B9C348807A00F0010010B940200090AB
:102DA00001E060200090BE4A12681179BC4A526866
:102DB00010786B460122FEF717FD10B14FF0FF307F
:102DC0004EE7B748407C10B10120009001E00020A0
:102DD0000090B34A1268D17BB14A526810786B46B2
:102DE0000122FEF701FD10B14FF0FF3038E7AC4A89
:102DF00012685179AA4A52681078A94B10330122FF
:102E0000FEF7F2FC10B14FF0FF3029E7002027E772
:102E100070B50446002624F00104A14890F824006F
:102E200008B1002070BD9E48807A10B94FF0FF3085
:102E3000F8E79B48057C807A204099490874084649
:102E4000007CA04202D04FF0FF3600E0002614B90B
:102E50009348007D18B10120FFF736FD02E0002005
:102E6000FFF732FD3CB1FFF7F5FE20B18C48057449
:102E70004FF0FF30D6E73046D4E738B504468848EF
:102E8000807A10B94FF0FF3038BDBC2C02DB012036
:102E9000009015E0622C02DB0220009010E02A2C4A
:102EA00002DB032000900BE0142C02DB04200090D6
:102EB00006E00A2C02DB0520009001E006200090CD
:102EC0007748C07A9DF80010884201D10020DBE7E6
:102ED000734A12689178724A526810786B460122E0
:102EE000FEF782FC10B14FF0FF30CDE79DF80010E7
:102EF0006B48C1720020C7E738B50446282C02DDB4
:102F00004FF0FF3038BDDCB90020FFF767FD00202F
:102F10008DF8000007208DF80100614A1268917C4D
:102F20005F4A526810786B460222FEF75DFC10B1D2
:102F30004FF0FF30E6E70021594801750020E1E736
:102F40000120FFF74BFD20208DF80000012C06D159
:102F500000208DF801000520FFF78FFF17E0052CFA
:102F600006DC01208DF801000520FFF786FF0EE04A
:102F7000142C06DC02208DF801000A20FFF77DFFEB
:102F800005E003208DF801001420FFF776FF9DF87F
:102F90000100072101EB8010C0B28DF80100404A0A
:102FA0001268917C3E4A526810786B460222FEF706
:102FB0001BFC10B14FF0FF30A4E7082138488172A4
:102FC00000210173012101750020FFF721FF00207E
:102FD00098E738B504463248807A10B94FF0FF3090
:102FE00038BD2F4890F8240010B14FF0FF30F7E7BC
:102FF0002B48007D50B134B1282C04DCE0B2FFF73F
:103000007BFF0020ECE70020FFF776FF042C01DABD
:10301000042404E0B4F57A7F01DD4FF47A744FF4B0
:103020007A7090FBF4F0401EC0B200901C4A126807
:1030300051781B4A526810786B460122FEF7D4FB88
:1030400010B14FF0FF30CBE79DF80000401C4FF46B
:103050007A7191FBF0F081B21148C1810146C989B2
:103060004810FFF70AFF0020BAE738B504460C48BD
:10307000807A10B94FF0FF3038BD022C06D0042CF6
:1030800007D0082C08D0102C0FD10BE000200090A6
:103090000EE0082000900BE01020009008E00000F7
:1030A000100100201820009002E04FF0FF30E3E70D
:1030B00000BFF948407A9DF80010B0EBE10F01D154
:1030C0000020D9E7F44A1268D179F34A526810789F
:1030D0006B460122FEF788FB10B14FF0FF30CBE7C3
:1030E0009DF80000C110EC4841720020C4E738B5DB
:1030F0000446E948807A10B94FF0FF3038BDFA2C09
:1031000009D0B4F5FA7F09D0B4F57A7F09D0B4F5C7
:10311000FA6F0CD108E0002000900BE0082000902E
:1031200008E01020009005E01820009002E04FF029
:10313000FF30E3E700BFD848007A9DF80010B0EBFD
:10314000E10F01D10020D9E7D34A12689179D24A20
:10315000526810786B460122FEF746FB10B14FF023
:10316000FF30CBE79DF80000C010CB49087200206B
:10317000C4E71CB580208DF80000C74A1268917C16
:10318000C54A526810786B460122FEF72DFB10B13C
:103190004FF0FF301CBD6420FDF7D8F800208DF8FB
:1031A0000000BD4A1268917CBB4A526810786B4699
:1031B0000122FEF719FB10B14FF0FF30EAE7B64AE3
:1031C0001268917DB44A526810786B460622FEF769
:1031D0006DFB10B14FF0FF30DCE79DF80500C00734
:1031E000400F9DF8031001F0010140EA41009DF8F5
:1031F000011001F0010140EA010494B1012C03D156
:103200000121A548C17431E0022C03D10021A2485C
:10321000C1742BE02146A1A002F0FCFF4FF0FF306B
:10322000B8E79D4A1268D1789B4A526810786B467D
:103230000122FEF73BFB10B14FF0FF30AAE79DF8EB
:10324000000000F00F042CB99E4802F0E3FF4FF09D
:10325000FF309FE7042C06D19BA002F0DBFF012189
:103260008D48C17402E000218B48C174FF218A4857
:103270008172FF2088490872FF2187484172C1721C
:103280004FF6FF71C181FF21017481740121017327
:1032900080F82210002180F8231041750175163046
:1032A000016041608160163880F8241080F8251094
:1032B000C1844FF4FA60FFF71AFF10B14FF0FF30EE
:1032C00068E70220FFF7D1FE10B14FF0FF3061E751
:1032D0002A20FFF7D2FD10B14FF0FF305AE732201D
:1032E000FFF777FE10B14FF0FF3053E70020FFF7F4
:1032F0008FFD10B14FF0FF304CE70020FFF706FCC8
:1033000010B14FF0FF3045E70020FFF79AFB002097
:1033100040E770477CB504460D465F48807A00F070
:10332000700010B94FF0FF307CBD5B4A1268117B12
:10333000594A526810786B460622FEF7B7FA10B168
:103340004FF0FF30F0E79DF801009DF8001040EAD3
:10335000012000B220809DF803009DF8021040EA91
:10336000012000B260809DF805009DF8041040EA3D
:10337000012000B2A08015B12846FFF7CAFF002047
:10338000D2E77CB504460D464348807A00F0080039
:1033900010B94FF0FF307CBD3F4A1268517B3E4A66
:1033A000526810786B460622FEF780FA10B14FF093
:1033B000FF30F0E79DF801009DF8001040EA012081
:1033C00000B220809DF803009DF8021040EA012021
:1033D00000B260809DF805009DF8041040EA0120CD
:1033E00000B2A08015B12846FFF793FF0020D2E776
:1033F0002DE9FE4F05460C462748807A18B94FF054
:10340000FF30BDE8FE8F244A1268917B224A526841
:10341000107802AB0222FEF749FA10B14FF0FF30EC
:10342000EFE79DF809009DF8081040EA012006B278
:1034300014B12046FFF76DFF17494968C88804F0AA
:103440009FFC154901904968B1F9080004F080FC1F
:103450008346304604F07CFC5946009004F0E0FDC1
:103460008246019904F042FB81461F4904F0D0FADC
:1034700080464FF08F4104F0CBFC074604F02CFC53
:1034800028600020BDE710B588B004461CB94FF095
:10349000FF3008B010BD29E010010020556E737593
:1034A00070706F7274656420736F66747761726593
:1034B0002070726F64756374207265762025642EA7
:1034C0000A000000589C000848616C662073656E15
:1034D0007369746976697479207061727420666F9B
:1034E000756E642E0D0A000000000C42206830B991
:1034F000606820B9A06810B9002008B010BDFA4972
:103500004968087806AB03221146FEF7CFF910B1DF
:103510004FF0FF30F1E79DF81800082101EB201073
:1035200000F00F00ADF800009DF8190001EB20102D
:1035300000F00F00ADF802009DF81A0001EB20101A
:1035400000F00F00ADF8040020684100BDF9000054
:10355000403091FBF0F000B2ADF81000606841001F
:10356000BDF90200403091FBF0F000B2ADF812005E
:10357000A0684100BDF90400403091FBF0F000B2BA
:10358000ADF81400D8494968087806AB0622114600
:10359000FEF78CF910B14FF0FF30AEE79DF819003F
:1035A0009DF8181040EA012000B2ADF808009DF81F
:1035B0001B009DF81A1040EA012000B2ADF80A0085
:1035C0009DF81D009DF81C1040EA012000B2ADF8E6
:1035D0000C00BDF81000BDF80810084400B2ADF8AA
:1035E0001000BDF81200BDF80A10084400B2ADF892
:1035F0001200BDF81400BDF80C10084400B2ADF87C
:103600001400BDF81000000A8DF81800BDF8100075
:10361000C0B28DF81900BDF81200000A8DF81A002A
:10362000BDF81200C0B28DF81B00BDF81400000AEE
:103630008DF81C00BDF81400C0B28DF81D00AA4919
:103640004968087806AB06221146FEF7CDF810B19E
:103650004FF0FF3051E700204FE70146A248007AC3
:1036600030B1012807D0022809D003280FD10AE081
:10367000FA2008800EE04FF4FA7008800AE04FF458
:103680007A70088006E04FF4FA60088002E00020BB
:10369000088000BF00BF0020704701469248407A72
:1036A00030B1012807D0022808D003280CD108E047
:1036B000022008700BE00420087008E00820087061
:1036C00005E01020087002E04FF0FF30704700BFA7
:1036D0008548C07C18B108784006000E08700020AC
:1036E000F4E701468048C07A082817D2DFE800F0E6
:1036F0001704070A0D101318BC20088013E062207D
:10370000088010E02A2008800DE0142008800AE0DC
:103710000A20088007E00520088004E000BF00BF01
:103720000020088000BF00BF0020704701466E489F
:1037300090F8240010B14FF0FF3070476A48C089FC
:1037400008800020F9E7014600200880401E7047ED
:1037500001464FF0FF30704701466348007A30B1B0
:10376000012807D0022808D003280CD108E05F48C0
:1037700008600BE05E48086008E05E48086005E00D
:103780005D48086002E04FF0FF30704700BF002046
:10379000FBE701465448407A30B1012808D002289E
:1037A0000AD0032810D10BE04FF4804008800EE0CF
:1037B00041F69C7008800AE04FF48050088006E0D3
:1037C0004FF40060088002E04FF0FF30704700BF08
:1037D0004548C07C10B10888401008800020F5E7FB
:1037E00001464148007C08700020704701463E4871
:1037F000807A10B10120087001E0002008700020DC
:10380000704738B504463848807A10B94FF0FF3019
:1038100038BD354A1268117C334A526810786B46BD
:103820000222FEF743F810B14FF0FF30F0E79DF8A9
:1038300001009DF8001040EA012000B22080002025
:10384000E6E72DE9FE4F0746884692461D46DDF81D
:1038500030B000260024244890F8240010B1601EE7
:10386000BDE8FE8F002028701F48807A10B94FF005
:10387000FF30F5E71C48007C10B94FF0FF30EFE750
:103880001948007C00F0400008B1B01CC6B21648D0
:10389000007C00F0200008B1B01CC6B21248007CC9
:1038A00000F0100008B1B01CC6B20F48007C00F058
:1038B000080008B1B01DC6B20B4A1268917A0A4AD4
:1038C000526810786B460222FDF7F0FF10B14FF0FE
:1038D000FF30C5E79DF801009DF8001040EA01297E
:1038E000B1450BDA0020BBE71001002000000343C4
:1038F000000083423333034233338341FC48406842
:103900004088B9EB600F17DDF94A1268517CF84A1C
:10391000526810786B460122FDF7C8FF10B14FF0D6
:10392000FF309DE79DF8000000F0100020B1FFF788
:1039300091F96FF0010093E75046FFF7EAFCEC4A7B
:103940001268D17AEA4A526810786B463246FDF71F
:10395000ADFF10B14FF0FF3082E799FBF6F0401E4B
:103960008BF8000000202870B4422AD0E048007C88
:1039700000F0080028B3601C1DF800001DF80410BA
:1039800040EA012000B2A8F80000E01C1DF8001079
:10399000A01C1DF8000041EA002000B2A8F80200B7
:1039A000601D1DF80010201D1DF8000041EA0020D8
:1039B00000B2A8F80400287840F008002870A01D84
:1039C00084B2B44213D0CA48007C00F0400070B109
:1039D000601C1DF800001DF8041040EA012000B230
:1039E0003880287840F040002870A01C84B2B4428F
:1039F00013D0BF48007C00F0200070B1601C1DF89F
:103A000000001DF8041040EA012000B278802878F8
:103A100040F020002870A01C84B2B44213D0B448F7
:103A2000007C00F0100070B1601C1DF800001DF853
:103A3000041040EA012000B2B880287840F010005D
:103A40002870A01C84B200200AE7F8B504460F468F
:103A50001646A74890F8240010B94FF0FF30F8BD83
:103A6000A348807A10B94FF0FF30F8E7A04A1268F7
:103A7000917A9F4A526810786B460222FDF716FF32
:103A800010B14FF0FF30EAE79DF801009DF80010FB
:103A900040EA0125A54203DA00203070401EDEE72F
:103AA000934840684088B5EB600F17DD904A126874
:103AB000517C8F4A526810786B460122FDF7F6FE62
:103AC00010B14FF0FF30CAE79DF8000000F0100081
:103AD00020B1FFF7BFF86FF00100C0E7E2B2844BFE
:103AE0001B68D97A824B5B6818783B46FDF7DEFE8F
:103AF00010B14FF0FF30B2E795FBF4F0401E30708C
:103B00000020ACE701467A4880F822100020704778
:103B10007CB5054676494968087801AB04220D2139
:103B2000FDF7C4FE08B107207CBD9DF80700C0F377
:103B300001109DF8041001F0E00140EAE1008DF869
:103B400000009DF80700C0F381009DF8051001F00A
:103B5000E00140EAE1008DF801009DF8070000F067
:103B600003009DF8061001F0E00140EAE1008DF845
:103B7000020000241CE01DF8040018B9002045F8DC
:103B8000240013E05B4845F8240006E055F82400C3
:103B9000594904F03DF945F824001DF80400401E81
:103BA000C0B20DF804000028F0D100BF601CC4B200
:103BB000032CE0DB0020B7E72DE9FE4F06460F4659
:103BC00000256846FFF7A4FF002442E056F82400D1
:103BD00057F82410A0EB010ABAF1000F01DB51469F
:103BE00001E0CAF10001084604F0B2F883464FF044
:103BF0008F4103F07BFF80465DF82400002104F034
:103C000037F816D05DF82410404603F06FFF824667
:103C10004FF07E5104F004FA814629F0004A3748FB
:103C2000416A504604F0C0F912D20120A040054379
:103C30000EE03248C169404604F0B6F805D32F487B
:103C4000016A404604F0B0F902D20120A0400543C9
:103C5000641C032CBADB2846BDE8FE8F2DE9FC5F0F
:103C600006460F46002522494968087801AB032221
:103C70000D21FDF71BFE10B10720BDE8FC9F9DF84C
:103C8000040000F01F008DF804009DF8050000F00E
:103C90001F008DF805009DF8060000F01F008DF84C
:103CA0000600002462E056F8240057F82410A0EB28
:103CB000010BBBF1000F01DB594601E0CBF1000124
:103CC000084604F045F84FF08F41009003F00EFFD6
:103CD000814601A8005DC0B30849086804F050F8A7
:103CE00083465946064803F001FF80460FE0000076
:103CF000100100207B14AE3E1D5A843F488F0008FF
:103D000000B04C45FE49404604F082F8804601A8C8
:103D1000005D401EC0B201A908550028F2D14146FD
:103D2000484603F0E3FE83464FF07E5104F078F9F5
:103D300082462AF0004BF3488169584604F034F972
:103D400013D20120A04005430FE0FFE7ED480169D1
:103D5000484604F029F805D3EA484169484604F08A
:103D600023F902D20120A0400543641C032C9ADBF6
:103D7000284682E72DE9F04F87B005460C4691466C
:103D800001208DF8100000208DF81100DE4A126825
:103D9000917CDD4A5268107804AB0222FDF724FDC5
:103DA00020B14FF0FF3007B0BDE8F08FC820FCF71E
:103DB000CDFA00208DF81000D34A1268D17BD24A88
:103DC0005268107804AB0122FDF70EFD10B14FF0E0
:103DD000FF30E8E7CC4A12685179CB4A5268107834
:103DE00004AB0122FDF700FD10B14FF0FF30DAE720
:103DF000C54A1268917CC44A5268107804AB01220B
:103E0000FDF7F2FC10B14FF0FF30CCE7BE4A12686C
:103E1000D17DBD4A5268107804AB0122FDF7E4FC65
:103E200010B14FF0FF30BEE7B74A12681179B64AB9
:103E30005268107804AB0122FDF7D6FC10B14FF0A8
:103E4000FF30B0E70C208DF81000AF4A12681179EE
:103E5000AD4A5268107804AB0122FDF7C5FC10B1E1
:103E60004FF0FF309FE70F20FCF770FAA648806AFA
:103E7000407A8DF81000A44A12689178A24A5268DC
:103E8000107804AB0122FDF7AFFC10B14FF0FF300A
:103E900089E79D48806A007A8DF810009A4A126876
:103EA0005178994A5268107804AB0122FDF79CFCC6
:103EB00010B14FF0FF3076E7B9F1000F07D092480C
:103EC000806A807A40F0E0008DF8100004E08E48AF
:103ED000806A807A8DF810008B4A126891798A4A3C
:103EE0005268107804AB0122FDF77EFC10B14FF050
:103EF000FF3058E7B9F1000F07D08348806AC07AD5
:103F000040F0E0008DF8100003E07E48C07A8DF8A4
:103F100010007D4A1268D1797B4A5268107804AB50
:103F20000122FDF761FC10B14FF0FF303BE7B9F122
:103F3000000F02D0C820FCF709FA40208DF81000CD
:103F4000714A12681179704A5268107804AB0122E4
:103F5000FDF74AFC10B14FF0FF3024E778208DF8D0
:103F60001000694A12685179674A5268107804ABA8
:103F70000122FDF739FC10B14FF0FF3013E7614922
:103F80008889FCF7E3F900208DF810005E4A12687A
:103F900051795D4A5268107804AB0122FDF724FC88
:103FA00010B14FF0FF30FEE6574A1268917A564A38
:103FB0005268107804AB0222FDF778FC10B14FF084
:103FC000FF30F0E69DF811009DF8101040EA012B3B
:103FD0000C209BFBF0F0C6B20020A860686028604F
:103FE000A06060602060824665E0474A1268D17A2E
:103FF000454A5268107804AB0C22FDF757FC10B10B
:104000004FF0FF30CFE69DF811009DF8101040EA08
:10401000012000B2ADF808009DF813009DF81210C1
:1040200040EA012000B2ADF80A009DF815009DF8A5
:10403000141040EA012000B2ADF80C00BDF90810E0
:10404000206808442060BDF90A1060680844606078
:10405000BDF90C10A0680844A0609DF817009DF8F9
:10406000161040EA012000B2ADF800009DF81900DA
:104070009DF8181040EA012000B2ADF802009DF84A
:104080001B009DF81A1040EA012000B2ADF80400B0
:10409000BDF90010286808442860BDF9021068685E
:1040A00008446860BDF90410A8680844A8600AF1D3
:1040B000010000F0FF0AB24597DB1248D0F800C0BB
:1040C0002868C117090441EA104107046246002329
:1040D000384602F07AF832460023CDE9020102F0B8
:1040E00074F828600748D0F800C06868C117090450
:1040F00041EA1041070462460023384606E000000A
:1041000054E3853F488F00081001002002F05DF85D
:1041100032460023CDE9020102F057F86860FE48FC
:10412000D0F800C0A868C117090441EA104107048B
:1041300062460023384602F048F832460023CDE9B3
:10414000020102F042F8A860F348D0F804C02168E8
:10415000C817000440EA11480F046246002338469D
:10416000414602F032F832460023CDE9020102F066
:104170002CF82060E848D0F804C06068C117090432
:1041800041EA1041070462460023384602F01DF858
:1041900032460023CDE9020102F017F86060DE48E4
:1041A000D0F804C0A068C117090441EA104107040F
:1041B00062460023384602F008F832460023CDE973
:1041C000020102F002F8A060A068002804DDA068E7
:1041D000A0F58030A06003E0A06800F58030A0600A
:1041E0000020E0E538B50446CC4890F82400A04211
:1041F00001D1002038BD24B3C84890F8250010B97B
:104200004FF0FF30F6E70020FEF75EFB0020FEF7E0
:104210007DFCC249C88CFEF7DCFE00200090BF493F
:10422000496808786B4601222321FDF7DDFA012158
:10423000BA4880F824100120FEF746FBFEF70AFD7D
:1042400013E00020FEF740FBB448007C0090B34927
:10425000496808786B4601222321FDF7C5FA002141
:10426000AE4880F82410FEF7F5FC0020C2E72DE9E7
:10427000F04F8DB083460F4602200C90A74890F86F
:10428000240020B10020FFF7ADFF012600E000264A
:1042900003A8FFF7E2F905A8FFF7FFF901A8FFF768
:1042A00020FA02A8FFF742FA9C4890F80AA004A856
:1042B000FFF796FA002407E0002239465846FFF738
:1042C00059FD00B902E0641C022CF5DB00BF022C92
:1042D00001D1002528E0002407E0012206A909A851
:1042E000FFF748FD00B902E0641C022CF5DB00BFBB
:1042F000022C01D1002517E006A93846FFF75CFC27
:1043000000F0FF0809A95846FFF7A8FC00F0FF09D4
:104310000025B9F1000F01D145F00105B8F1000FFA
:1043200001D145F0020500BFFF207C490872FF2142
:104330007A484172C1724FF6FF71C181FF218172CB
:10434000017401210173BDF80C00FEF7D0FE9DF849
:104350001400FEF78AFEBDF80400FEF78EFDBDF8DE
:104360000800FEF736FE5046FEF76BFB9DF8100086
:10437000FEF74EFD16B10120FFF734FF28460DB0C1
:10438000BDE8F08FF8B504460D46164616B94FF055
:10439000FF30F8BD6148807A10B94FF0FF30F8E780
:1043A00020128DF80000E0B28DF801009DF80100A8
:1043B00028445A4949684989884202DD4FF0FF3054
:1043C000E7E7564A1268117E544A526810786B46E5
:1043D0000222FDF709FA10B14FF0FF30D9E7EAB237
:1043E0004E4B1B68597D4D4B5B6818783346FDF783
:1043F000FBF910B14FF0FF30CBE70020C9E7F8B56B
:1044000004460D46164616B94FF0FF30F8BD434836
:10441000807A10B94FF0FF30F8E720128DF80000D5
:10442000E0B28DF801009DF8010028443B4949683D
:104430004989884202DD4FF0FF30E7E7374A1268CA
:10444000117E364A526810786B460222FDF7CCF98D
:1044500010B14FF0FF30D9E7EAB2304B1B68597DFD
:104460002E4B5B6818783346FDF720FA10B14FF0F9
:10447000FF30CBE70020C9E72DE9F04385B00546C2
:104480000E4690469946254890F8250020B14FF0F9
:10449000FF3005B0BDE8F08316B94FF0FF30F8E704
:1044A000002423E0281B102801DD102000E0281B39
:1044B00087B2321939462046FFF764FF10B14FF03A
:1044C000FF30E6E701AA39462046FFF798FF10B112
:1044D0004FF0FF30DDE730193A4601A901F016FF31
:1044E00010B16FF00100D4E7E01984B2AC42D9DB1F
:1044F0004FEA28208DF8000008F0FF008DF8010039
:10450000064A1268917E054A526810786B4602226C
:10451000FDF76AF938B103E0488F00081001002068
:104520004FF0FF30B5E701218A4880F82510A0F848
:1045300026900020ADE70146864890F824000870D8
:104540000020704702464FF0FF30704701464FF0A1
:10455000FF307047F8B505460F461446002C70D062
:10456000B5F5FF5F01DDFF2605E0202D01DA01260C
:1045700001E0C5F3471607B90127282C02DD4FF0EB
:10458000FF30F8BD7348407D28BB724890F8240086
:1045900038B10020FFF726FE01216E4880F8201078
:1045A00003E000216B4880F820106A481630FFF7BE
:1045B00054F868481830FFF770F866481A30FFF76B
:1045C00090F864481C30FFF7B1F86248817A81772F
:1045D0001F30FFF705F90020FEF776F90020FEF7FF
:1045E0008BFC00208DF800005A4A12689178594AD5
:1045F000526810786B460122FDF7F6F810B14FF0C3
:10460000FF30BEE740208DF80000524A1268D17B8F
:10461000504A526810786B460122FDF7E5F800B168
:1046200065E08DF800608DF801704A4A1268117AD1
:10463000484A526810786B460222FDF7D5F808B157
:1046400055E047E00520FBF781FE4248407A07210C
:1046500001EBC000C0B28DF800003E4A1268D1796B
:104660003C4A526810786B460122FDF7BDF800B154
:104670003DE020208DF80000012C03D100208DF8B2
:1046800001000EE0052C03DC01208DF8010008E09C
:10469000142C03DC02208DF8010002E003208DF8C9
:1046A00001009DF80100072101EB8010C0B28DF8D8
:1046B0000100284A1268917C264A526810786B469D
:1046C0000222FDF791F800B111E001212148417566
:1046D000002056E71F4A1632002103E0505C00B16B
:1046E00005E0491C0C29F9D34FF0FF3049E7FF20C2
:1046F00018490872FF2117484172C1724FF6FF71C5
:10470000C181FF2181720174012101730146887FFB
:10471000FEF797F90F49C88AFEF7E9FC0D49087EB4
:10472000FEF7A3FC0B49488BFEF7A7FB0949888BD2
:10473000FEF74FFC0749C87FFEF76AFB054890F873
:10474000200010B10120FFF74DFD00210148417507
:10475000002016E71001002010B5C8234FF4806236
:10476000F74940F6F630FFF787FE10BD10B586B06A
:104770000446F4A000680390F3A000680290F3A040
:1047800000680190F2A00068009004F0030003A903
:10479000085C8DF8140003A8C4F3C101405C8DF8D7
:1047A000150003A8C4F38111405C8DF8160004F0D5
:1047B000030002A9085C8DF8100002A8C4F3C1012F
:1047C000405C8DF8110002A8C4F38111405C8DF8A3
:1047D000120005AA032140F22640FFF7D3FD18B1CD
:1047E0004FF0FF3006B010BD04AA032140F22A406A
:1047F000FFF7C8FD10B14FF0FF30F3E701980590C7
:104800000098049004F0040058B19DF8140040F0A2
:1048100001008DF814009DF8100040F001008DF8A3
:10482000100004F0200058B19DF8150040F0010080
:104830008DF815009DF8110040F001008DF8110071
:1048400004F4807058B19DF8160040F001008DF816
:1048500016009DF8120040F001008DF8120005AA24
:1048600003214FF48860FFF78DFD10B14FF0FF304A
:10487000B8E704AA032140F23140FFF783FD10B1ED
:104880004FF0FF30AEE7B34804810020AAE71FB520
:104890000446B048007A00F0030054F8200001906C
:1048A000AC48007A00F0040010B101984042019039
:1048B000A848007AC0F3C10054F820000290A5482F
:1048C000007A00F0200010B1029840420290A14806
:1048D000007AC0F3811054F8200003909D480089AD
:1048E00000F4807010B10398404203909A490198F7
:1048F00080FB0101800F40EA8100019096490298F7
:1049000080FB0110820042EA917002909249039864
:1049100080FB0110820042EA917003900198000E22
:104920008DF800000198000C8DF801000198000A34
:104930008DF802000198C0B28DF803006A46042188
:104940004FF47470FFF71EFD18B14FF0FF3004B044
:1049500010BD0298000E8DF800000298000C8DF832
:1049600001000298000A8DF802000298C0B28DF88A
:1049700003006A4604214FF47570FFF703FD10B180
:104980004FF0FF30E3E70398000E8DF80000039826
:10499000000C8DF801000398000A8DF802000398BE
:1049A000C0B28DF803006A4604214FF47670FFF719
:1049B000E9FCCCE770B588B0064601A8FEF7E9FE31
:1049C000BDF804000021C90341EA5045C403614811
:1049D000007A00F0030056F8200005905D48007A48
:1049E00000F0040010B10598404205905948007A43
:1049F000C0F3C10056F8200006905648007A00F037
:104A0000200010B10698404206905248007AC0F348
:104A1000811056F8200007904E48008900F48070FD
:104A200010B10798404207900598C117A0FB0423D6
:104A300001FB043100FB0510810041EA92700590F2
:104A40000698C117A0FB042301FB043100FB0510ED
:104A5000810041EA927006900798C117A0FB0423D9
:104A600001FB043100FB0510810041EA92700790C0
:104A70000598000E8DF808000598000C8DF80900C7
:104A80000598000A8DF80A000598C0B28DF80B0051
:104A90000698000E8DF80C000698000C8DF80D009D
:104AA0000698000A8DF80E000698C0B28DF80F0027
:104AB0000798000E8DF810000798000C8DF8110073
:104AC0000798000A8DF812000798C0B28DF81300FD
:104AD00002AA0C214FF42570FFF754FC08B070BDFA
:104AE00030B585B004461DA207CA02AB07C3C82C67
:104AF00003DD4FF0FF3005B030BDC82090FBF4F06F
:104B0000401E85B2280A8DF80000E8B28DF8010039
:104B10006A46022140F21620FFF734FC10B14FF034
:104B2000FF30E8E702AA0C2140F6C120FFF72AFC7B
:104B300010B14FF0FF30DEE7064884810020DAE74D
:104B4000708F00084CCD6C000CC92C0036567600D6
:104B500026466600DC05002009E3CA02FEF2ABC46B
:104B6000AAF1DFDFBBAFDFDF0146FC4880890880A8
:104B7000002070472DE9FC4706460F4606F0070067
:104B800010B1B7F5C86F03DD4FF0FF30BDE8FC870B
:104B9000384603F0F5F88146F14902F0A7FF804658
:104BA0006846FEF77AFD9DF80000022806D004282A
:104BB00016D0082826D0102848D135E04FF08D4176
:104BC000404603F025F9814603F0A2F884B2E54996
:104BD000404603F01DF9814603F09AF885B238E0AB
:104BE0004FF08C41404603F013F9814603F090F8F2
:104BF00084B2DD49404603F00BF9814603F088F8A2
:104C000085B226E04FF08B41404603F001F9814622
:104C100003F07EF884B2D549404603F0F9F88146A6
:104C200003F076F885B214E04FF08A41404603F075
:104C3000EFF8814603F06CF884B2CD49404603F0AA
:104C4000E7F8814603F064F885B202E04FF0FF30E8
:104C50009CE700BF20128DF80400E0B28DF805003B
:104C600028128DF80600E8B28DF8070006F0010062
:104C7000A0B101AA02214FF4EA70FFF783FB10B143
:104C80004FF0FF3082E70DF1060202214FF49270DF
:104C9000FFF778FB10B14FF0FF3077E706F0020026
:104CA000A0B101AA02214FF4EC70FFF76BFB10B129
:104CB0004FF0FF306AE70DF1060202214FF49470C5
:104CC000FFF760FB10B14FF0FF305FE706F0040024
:104CD000A0B101AA02214FF4EE70FFF753FB10B10F
:104CE0004FF0FF3052E70DF1060202214FF49670AB
:104CF000FFF748FB10B14FF0FF3047E7002045E7D2
:104D000038B504460020009004F0010020B19DF861
:104D1000000040F03000009004F0020020B19DF847
:104D2000000040F00C00009004F0040020B19DF859
:104D3000000040F0030000906A4601214FF4A47087
:104D4000FFF720FB38BD38B50446012C01DA0124F9
:104D500002E0042C00DD0424601EC0B200906A460C
:104D6000012140F24F10FFF70DFB38BD38B5044666
:104D7000052094FBF0F085B228128DF80000E8B20F
:104D80008DF801006A4602214FF4EF70FFF7FAFA3E
:104D900038BD38B50446052094FBF0F085B22812E2
:104DA0008DF80000E8B28DF801006A4602214FF448
:104DB000ED70FFF7E7FA38BDF8B505460E464FF43B
:104DC0007A7095FBF0F000FB06F4200E8DF80000E1
:104DD000200C8DF80100200A8DF80200E0B28DF859
:104DE00003006A4604214FF4AE70FFF7CBFAF8BD1A
:104DF00038B50446052094FBF0F084B220128DF8FB
:104E00000000E0B28DF801006A4602214FF4AD7057
:104E1000FFF7B8FA38BD38B50446052094FBF0F02A
:104E200084B220128DF80000E0B28DF801006A46CD
:104E300002214FF4AC70FFF7A5FA38BD38B504462F
:104E400014B94FF0FF3038BD6A4604214FF4587052
:104E5000FFF7D5FA10B14FF0FF30F4E79DF80000EE
:104E600000069DF8011040EA01409DF8021040EA5A
:104E700001209DF80310084320600020E3E738B5C7
:104E80000446200E8DF80000200C8DF80100200A49
:104E90008DF80200E0B28DF803006A4604214FF459
:104EA0005870FFF76FFA38BD38B5044614B94FF0A3
:104EB000FF3038BD6A4604214FF47170FFF79FFA46
:104EC00010B14FF0FF30F4E79DF8000000069DF8A8
:104ED000011040EA01409DF8021040EA01209DF8CF
:104EE0000310084300EB8000800020600020E0E712
:104EF00038B504461420B4FBF0F4200E8DF8000001
:104F0000200C8DF80100200A8DF80200E0B28DF827
:104F100003006A4604214FF47170FFF733FA38BD7D
:104F200038B5044664B120208DF8000028208DF8A3
:104F3000010030208DF8020038208DF8030004E0D5
:104F4000A3220421684601F00DFA6A46042140F6C6
:104F50009E20FFF717FAFDF77DFE38BDDC05002027
:104F600000004843000040460000C04500004045A6
:104F70000000C04438B5044664B1C0208DF800007C
:104F8000C2208DF80100C4208DF80200C6208DF8E3
:104F9000030004E08B220421684601F0E3F96A462D
:104FA000042140F69820FFF7EDF9FDF753FE38BDD8
:104FB0003EB504466CB1FDA1D1E900208968CDE978
:104FC000002002916A4609214FF49760FFF7DAF951
:104FD0003EBDF9A2D2E900109268CDE9010200912C
:104FE0006A4609214FF49760FFF7CCF9F0E73EB528
:104FF000044602208DF80000CA208DF80100E3204D
:105000008DF8020009208DF803006A46042168200B
:10501000FFF7B8F9A3208DF8000004F0400048B174
:10502000C0208DF80100C8208DF80200C2208DF844
:10503000030006E0A3208DF801008DF802008DF832
:10504000030004F4C07048B1C4208DF80400CC20E3
:105050008DF80500C6208DF8060006E0A3208DF827
:1050600004008DF805008DF80600A3208DF80700D8
:105070008DF808008DF809006A460A2140F6A7203D
:10508000FFF780F904F0030018B120208DF800002C
:1050900002E0D8208DF800006A46012140F6B620D3
:1050A000FFF770F904F0200018B10120FFF780FF2E
:1050B00002E00020FFF77CFF04F4C07008B304F4A2
:1050C000807060B1B2208DF800008B208DF8010057
:1050D000B6208DF802009B208DF803000BE0B02075
:1050E0008DF8000080208DF80100B4208DF80200BA
:1050F00090208DF803006A46042140F6A220FFF7B5
:1051000041F904F0010020B3F8208DF800006A4650
:1051100001214FF40B60FFF735F9FA210720FFF763
:1051200029FD0720FFF7ECFD0120FFF70CFE6420AE
:10513000FFF71CFE4FF4FA70FFF72BFEC821A148C1
:10514000FFF73AFE2820FFF753FE0A20FFF763FE21
:1051500008E0D8208DF800006A4601214FF40B606A
:10516000FFF710F904F0020018B1D9208DF8000003
:1051700002E0D8208DF800006A46012140F23D701F
:10518000FFF700F904F0040018B10120FFF7F2FE68
:1051900002E00020FFF7EEFE04F0100018B101203D
:1051A000FFF7BEFE02E00020FFF7BAFE44F0080061
:1051B00085494881FDF74EFD00208349887304F03E
:1051C000400018B10846807B801D887304F4C070CD
:1051D00020B17D48807B801D7B49887304F01400DA
:1051E00020B17948807B10307749887304F0030040
:1051F00020B17548807B001D7349887300203EBD37
:105200000146714840890880002070472DE9F0412F
:105210000446E07800F0C006E07800F03F056078D2
:1052200000F0010098B1EF102846E91705EB517125
:10523000C910A5EBC101491C01F0FF0862480068D4
:1052400020B16148414602683846904700BF607807
:1052500000F0080030B15C48406818B1B0115A4AFB
:10526000516888470020BDE8F08110B586B004463B
:1052700056A207CA03AB07C357A207CA8DE80700A7
:10528000012C09D0022C0ED103AA0B2140F682205A
:10529000FFF778F806B010BD6A460B2140F6822071
:1052A000FFF770F8F6E74FF0FF30F3E72DE9F04F26
:1052B0008DB00746884615469946DDE9166B0024F1
:1052C000002030804049887B5A4605A9FEF7BDFB87
:1052D00018B1601E0DB0BDE8F08F3B48807A00F039
:1052E0001400002861D09DF8140000069DF81510E8
:1052F00040EA01409DF8161040EA01209DF8171081
:10530000084328609DF8180000069DF8191040EA2F
:1053100001409DF81A1040EA01209DF81B10084337
:1053200068609DF81C0000069DF81D1040EA0140D1
:105330009DF81E1040EA01209DF81F100843A86048
:105340009DF8200000069DF8211040EA01409DF8DC
:10535000221040EA01209DF823100843E86004F180
:105360001000C4B22868001401906868001402900C
:10537000A86800140390E868001404900198404362
:10538000029901FB0100039901FB0100049901FB53
:10539000010ABAF1706F02DBBAF1885F22DDFDF716
:1053A00059FC00203080401E94E721E0B8AAB38D5C
:1053B000B4980D355D000000B8AAAAAAB088C3C58C
:1053C000C700000009E3CA02DC050020D8B1B9F328
:1053D0008BA391B609B4D900DAB1B9F38BA391B616
:1053E000DAB4DA00B6F9000040F48070308000BF13
:1053F0003448807A00F0400020B305A9601C085CA6
:10540000095D40EA012000B2A8F8000005A9E01CEF
:10541000095C05AAA01C105C41EA002000B2A8F8B3
:10542000020005A9601D095C201D105C41EA0020F6
:1054300000B2A8F80400A01DC4B2B6F9000040F004
:10544000080030801F48408900F4C07008B305A9E7
:10545000601C085C095D40EA012000B2388005A9A3
:10546000E01C095C05AAA01C105C41EA002000B207
:10547000788005A9601D095C201D105C41EA0020B0
:1054800000B2B880A01DC4B2B6F9000040F07000B0
:1054900030800C48807A00F0030018B105A9081983
:1054A000FFF7B4FE4846FDF734FF002012E701463F
:1054B0000448016000207047014602484160002016
:1054C00070470000DC050020014691F90020002A09
:1054D00001DD00201EE091F90020002A01DA0420FD
:1054E00018E091F90120002A01DD012012E091F974
:1054F0000120002A01DA05200CE091F90220002A9F
:1055000001DD022006E091F90220002A01DA0620DE
:1055100000E00720704770B505462846FFF7D4FF26
:105520000446E81CFFF7D0FF44EAC00084B2A81D7F
:10553000FFF7CAFF44EA801084B2204670BD70B500
:1055400088B002A905A8FEF792FE0446072C3FD1B9
:1055500001A8FEF701F9059802F0FAFB0646019949
:1055600002F056FC054602F0B7FB0590069802F0E3
:10557000EFFB0646019902F04BFC054602F0ACFB3E
:105580000690079802F0E4FB0646019902F040FC01
:10559000054602F0A1FB079005A8FFF778F96846D9
:1055A000FEF7F7F8BDF80010029848430290BDF8E6
:1055B0000010039848430390BDF800100498484336
:1055C000049002A8FFF7F6F9FEA000F023FE00BF4A
:1055D00008B070BD2DE9F04304460D46DDE90767CC
:1055E0000021012041E0DFF800C43CF81080A0F168
:1055F000010CDFF8F49329F81C8009F1160C3CF833
:105600001090A0F1010CDFF8E08308F1160828F8EB
:105610001C9008F1160C3CF81090A0F1010C08F158
:10562000160828F81C9008F1160C3CF81090A0F110
:10563000010C08F1160828F81C9008F1160C3CF82B
:105640001090A0F1010C08F1160828F81C9008F140
:10565000160C3CF81090A0F1010C08F1160828F87F
:105660001C9000F1010C0CF0FF000A28BBDBDFF8F6
:1056700078C3ACF81240ACF82850ACF83E20ACF837
:105680005430ACF86A60ACF880700021002008E06B
:10569000DFF854C33CF910C0614400F1010C0CF078
:1056A000FF000A28F4DB4FF00A0C91FBFCFC0FFA18
:1056B0008CFCDFF83483A8F814C0002100200AE035
:1056C000DFF824C30CF1160C3CF910C0614400F162
:1056D000010C0CF0FF000A28F2DB4FF00A0C91FBE2
:1056E000FCFC0FFA8CF8DFF800C3ACF82A8000212C
:1056F00000200AE0DFF8F0C20CF12C0C3CF910C0DD
:10570000614400F1010C0CF0FF000A28F2DB4FF0BD
:105710000A0C91FBFCFC0FFA8CF8DFF8CCC2ACF859
:105720004080002100200AE0DFF8BCC20CF1420CEE
:105730003CF910C0614400F1010C0CF0FF000A2894
:10574000F2DB4FF00A0C91FBFCFC0FFA8CF8DFF84F
:1057500098C2ACF85680002100200AE0DFF888C229
:105760000CF1580C3CF910C0614400F1010C0CF034
:10577000FF000A28F2DB4FF00A0C91FBFCFC0FFA49
:105780008CF8DFF864C2ACF86C80002100200AE0DD
:10579000DFF854C20CF16E0C3CF910C0614400F10A
:1057A000010C0CF0FF000A28F2DB4FF00A0C91FB11
:1057B000FCFC0FFA8CF8DFF830C2ACF88280BDE850
:1057C000F08338B50446032302226B21D0200094D5
:1057D000FCF73CF938BD38B50446022304221B21EE
:1057E000D0200094FCF732F938BD38B504460223C6
:1057F00004221C21D0200094FCF728F938BD10B5F4
:105800000446234606226B21D020FCF754F910BD34
:1058100010B5764B01227521D020FCF7A5F873480E
:10582000007810BD10B5FFF7F3FF682801D1012003
:1058300010BD0020FCE710B50446234605226A216E
:10584000D020FCF738F910BD10B5044623460122DC
:105850003721D020FCF72FF910BD10B50220FFF73B
:10586000B0FF0320FFF7B7FF0020FFF7BEFF0020C7
:10587000FFF7C5FF0020FFF7DEFF0020FFF7E4FF82
:1058800010BD38B5002000906B46012275216820BC
:10589000FCF70CF856A000F0BDFC9DF8000068284D
:1058A0000ED000BF5B48006800F4E0605A4908432E
:1058B000001D58490860BFF3408F00BF00BFFEE7DE
:1058C000FDF757FC00283CD17820FDF7BAF810B955
:1058D00047A000F09FFC7820FDF79AFA10B94FA07E
:1058E00000F098FCC820FDF774FB10B955A000F03B
:1058F00091FCFEF731FF10B95CA000F08BFC68480A
:10590000FFF709FE0446FEF731FF10B965A000F06D
:1059100081FC40F27310FFF76AFB10B96BA000F036
:1059200079FCC820FFF7DCF810B972A000F072FC17
:10593000FFF705FE0120FEF755FC10B976A000F038
:1059400069FC38BD2DE9F04F8FB00CA87B490DAB39
:1059500008AACDE900107A497A48FFF7A7FC7748F2
:10596000008800F4807000282AD0089802F0F0F92E
:1059700004464FF09D4102F0B9F873490860099858
:1059800002F0E6F904464FF09D4102F0AFF86F498E
:1059900008600A9802F0DCF904464FF09D4102F0DD
:1059A000A5F86B4908600B9802F0D2F904464FF055
:1059B0009D4102F09BF86749086063480168CBE0AD
:1059C000A0E1000073657474696E67206269617399
:1059D0002073756363657366756C6C79202E2E2E4B
:1059E0002E2E2E0D0A000000FA050020EC050020E6
:1059F0006D70755F7365745F73656E736F7220632E
:105A00006F6D706C657465202E2E2E2E2E2E0D0A55
:105A1000000000000CED00E00000FA056D70755FFD
:105A2000636F6E6669677572655F6669666F20632E
:105A30006F6D706C657465202E2E2E2E2E2E0D0A25
:105A4000000000006D70755F7365745F73616D7049
:105A50006C655F7261746520636F6D706C657465F1
:105A6000202E2E2E2E2E2E0D0A000000646D705F4B
:105A70006C6F61645F6D6F74696F6E5F647269767D
:105A800065725F6669726D7761726520636F6D70B4
:105A90006C657465202E2E2E2E2E2E0D0A00000011
:105AA0005C010020646D705F7365745F6F7269657F
:105AB0006E746174696F6E20636F6D706C65746570
:105AC000202E2E2E2E2E2E0D0A000000646D705FEB
:105AD000656E61626C655F66656174757265206391
